:020000001028C6
:10000800FE00030EF3000408F4000A08F50083124A
:1000180003137F08F600F7281128F901FA01830174
:1000280015280F308316031385008130860083124C
:100038000313850186018B108316031301170B1612
:100048008B178B150B10023083120313A900453050
:10005800A800A930A700A70B2F28A80B2F28A90BA9
:100068002F2800000130F9070318FA0A0030FA07B0
:1000780000308312031305180130B60000308518CC
:100088000130B700003005190130B800003085197B
:100098000130B2000030051A0130AA00791856283C
:1000A800013057280030A7002708AB000530A00012
:1000B8000030A1007A08A3007908A2008B218312DE
:1000C800031320082104031D6B2801306C2800301D
:1000D800A7002708B3000730A0000030A1007A0865
:1000E800A3007908A2008B2183120313200821049E
:1000F800031D8028013081280030A7002708B4009C
:10010800AF01360803198D283708031D3808031D69
:100118009628380803199B28320803199B282A08AF
:1001280003199B28330803199B28AF01AF0A2F082E
:10013800A7002708B5003508031DA4280130A52805
:100148000030A7002708AC00B00136080319B4280E
:1001580037080319B4283808031D3208031DB928C5
:1001680034080319B928B001B00A3008A7002708D5
:10017800AD00B101B10A3608031D2B08031DCE28B6
:100188003708031D3308031DCE283808031D34081B
:100198000319B1013108A7002708AE00351CD8287B
:1001A800831203138614DB288312031386102C1C76
:1001B800E128831203130615E4288312031306119A
:1001C8002D1CEA28831203138615ED2883120313C6
:1001D80086112E1CF3288312031306162728831270
:1001E8000313061227288B1C4E298B10791C002913
:1001F80083120313061703298312031306137A08BD
:10020800F1007908F000710DF10CF00C701C102948
:1002180083120313861613298312031386127A088E
:10022800F1007908F000710DF10CF00C710DF10C72
:10023800F00C701C23298312031305172629831237
:10024800031305137A08F1007908F000710DF10C19
:10025800F00C710DF10CF00C710DF10CF00C701C20
:1002680039298312031385173C2983120313851335
:10027800861786140230F2004530F100A930F000EC
:10028800F00B4429F10B4429F20B44294B29831222
:10029800031386130B1C7E29861F7D29F701F8019D
:1002A8007808803AFF0080307F02031D5D291430F2
:1002B800770203187D290430831203138606213040
:1002C800F1007630F000F00B6729F10B6729000088
:1002D8000130F7070318F80A0030F8077808803A61
:1002E800FF0080307F02031D7B2914307702031C36
:1002F8005F290B10760883120313FF0075088A0024
:1003080074088400730E8300FE0E7E0E09008312AB
:100318000313A601A31F9729A209A309A20A031977
:10032800A30AA601A60AA11F9E29A009A109A00A3D
:100338000319A10A200821040319CB29A501A50A3C
:10034800A11BB22901300310A00DA10DFF3E031D12
:10035800A7290130A4002408A507A42921082302FD
:10036800031DB82920082202031CC0292008A20264
:100378002108031CA303A30201300310A10CA00C45
:10038800FF3E031DC1290130A502031DB22926081D
:100398000319D329A209A309A20A0319A30A230846
:0803A800A1002208A0000800DA
:02400E0018FF99
:00000001FF
